:10000000E84F0020197800001578000015780000EE
:1000100000000000000000000000000000000000E0
:100020000000000000000000000000001578000043
:1000300000000000000000001578000015780000A6
:10004000157800001578000029510000C148000013
:10005000157800001578000015780000157800006C
:10006000595F0000695F0000795F0000895F000050
:10007000995F0000A95F0000157800001578000066
:1000800015780000D1730000E1730000F1730000E7
:1000900001740000117400000D4600001578000086
:1000A000157800001578000015780000157800001C
:1000B0000000000010B5064C2378002B07D1054B3B
:1000C000002B02D0044800E000BF0123237010BDC4
:1000D000C80900200000000008090200084B10B504
:1000E000002B03D00749084800E000BF0748036819
:1000F000002B00D110BD064B002BFBD09847F9E731
:1001000000000000CC0900200809020008090200D4
:100110000000000010B50248024B9847002010BDB7
:10012000E4090020B90C000010B582B00400144BA3
:100130001B68002B01D0134B98472000124B9847A7
:100140000F4B1860002819D062780023032A02D0D0
:10015000180002B010BD03680133023A0092123257
:1001600000210020094CA047031EF1D1044A126867
:1001700011684A78072082434A70E9E7E123E7E7FC
:10018000E4090020150100002D0C00007D0700008F
:1001900010B5029C002C08D00324204007D0022870
:1001A0000DD0012803D0E22012E0E22010E0D200BE
:1001B000072003401A43029B1A80002008E0C90070
:1001C000072003400B4312021A43029B1A800020AF
:1001D00010BD0000002A3ED0204B1B685B685B68A6
:1001E0005B78002B13D1012809D0002803D0022806
:1001F00009D0E22030E05823136000202CE0402397
:100200001360002028E020231360002024E0012850
:1002100009D0002803D0022809D0E2201CE0802366
:100220001360002018E040231360002014E0072929
:1002300008D908290AD0E2200F290DD848231360D5
:10024000002009E024231360002005E0D0235B0098
:100250001360002000E0E2207047C046E40900205F
:1002600070B5B2B014001D00002A32D01A4B1B68C2
:100270001E686B46D8709980C04383070ED0102249
:1002800021006B46981D154B984769463000144B6A
:100290009847041E09D0200032B070BD20222100F2
:1002A0006B46981D0D4B9847EFE70B4B1968684656
:1002B0000C4B9847041EEED1002DECD06B469B7979
:1002C000122BE8D910226B46D91D2800034B984702
:1002D000E1E7E224DFE7C046E4090020119D0100C8
:1002E000F10A0000F50C000010B504008901C8B245
:1002F0002100014CA04710BD6102000030B5B3B031
:1003000014001E4A12681568002B26D0002C22D03B
:100310006A46D0709180032824D11F2B11D9202246
:1003200021006B46981D164B984700221DE0032BB9
:100330001BD9043221006B46981D114B98470122AE
:1003400013E0002211E000220FE00C4B1968684610
:100350000C4B98470FE0E2200DE06A46D070918088
:100360000328F0D000220228E1D069462800064B7D
:1003700098470028E9D033B030BDC046E4090020DA
:10038000119D0100F50C0000210A0000F0B5B3B08A
:100390001500002B53D02B4A126814686A46D0709F
:1003A000918095712A0A6946CA712A0C0A722A0E2E
:1003B0004A7260260640202E0DD019000A2068449B
:1003C000214B984769462000204B9847041E09D0CE
:1003D000200033B0F0BD102219000A2068441A4BE7
:1003E0009847EFE7174B19686846194B9847041E62
:1003F000EED12027002E02D1EB0500D52037389B07
:10040000002B04D06B469A79FB1C9A4210DA399B78
:10041000002BDDD06B469A793B0023339A42D7DB21
:1004200032ABD919C13920223998074B9847CFE709
:100430003A006B46D91D3898034B9847E7E7E2240A
:10044000C6E7C046E4090020119D01001D0B000015
:10045000F50C0000F0B5B3B016001D001F4B1B6873
:100460001F68032303406A46D0709180012B05D991
:10047000E224032B22D0200033B0F0BD142231003F
:100480006B46981D164B984769463800154B9847A0
:10049000041EF0D1114B19686846134B9847041E8F
:1004A000E9D1002DE7D06B469B79222BE3D920229E
:1004B0006B46D91D28000A4B9847DCE7830606D512
:1004C000402231006B46981D054B9847DCE72022FF
:1004D00031006B46981D024B9847D5E7E409002090
:1004E000119D0100510A0000F50C000010B502003A
:1004F0000B0000210020014CA04710BD5504000056
:1005000030B5B3B00500124B1B68186800236A466B
:10051000D370938069460F4B9847041E02D0200089
:1005200033B030BD0A4B196868460B4B9847041E20
:10053000F5D16B469B79232B01D0E624EFE7002D04
:10054000EDD020226B46D91D2800044B9847E6E7E2
:10055000E40900208D0A0000F50C0000119D010047
:10056000F0B5B9B003903EA880C80578002F0AD036
:10057000224800680668042D16D0E224202D04D0FD
:10058000200039B0F0BDE224FAE70E2002ACA44608
:100590006044009003981A4CA047041EF0D18023B9
:1005A000039A1A43039209E00E2002ACA446604469
:1005B00000900398124CA047041EE1D106A96B4697
:1005C0001B7BCB700E2302AA944663441B888B804E
:1005D00030000C4B9847041ED2D1084B196806A86E
:1005E000094B9847041ECBD12A00172102AB9C4629
:1005F00061443800054B9847C2E7C046E409002033
:1006000091010000A50A0000F50C0000119D0100F9
:1006100070B58AB00500E22400280BD02023019396
:1006200002AB00930023002200210020084CA047C9
:10063000041E02D020000AB070BD042202A92800C6
:10064000044EB047281D052204A9B047F2E7C04672
:1006500061050000119D0100F0B5D64600B5B6B0A9
:100660000290039115001C003CAB1E88142200214F
:100670000EA83B4FB8472022002106A8B847002308
:100680000593002D67D0E220002C65D02033019324
:1006900013AB00930023002200210020314FB84704
:1006A000002859D1052215A914A82F4B984706A94F
:1006B0000EA82E4B984700284ED11BAF4422002194
:1006C0003800274B9A4698471022002132A8D0477D
:1006D0000EAB339306AB3493359732A8244B98472F
:1006E000002839D105AA15231370133B5370967057
:1006F000330AD3700423310002301E4FB84700285C
:100700002AD12CAF182200213800154B98477E8043
:1007100013ABBB60FC6002233B7005AB3B611BABC2
:100720007B613800144B9847002815D12023019392
:1007300000950023039A029982300A4CA0470028B2
:100740000AD100231BACEA5C195D4A40EA5401332C
:10075000202BF8D100E0E22036B004BC9246F0BD78
:10076000359E010061050000959D0100ED0400002B
:100770007D190000FD020000451A0000F0B5DE46BC
:1007800057464E464546E0B591B005000291170028
:10079000039300230F93E224022807D9200011B00D
:1007A0003CBC90469946A246AB46F0BD02281FD0FD
:1007B00000241A9B002BF1D0E234039B002BEDD0D8
:1007C0000FAA029928002E4B9847041EE6D11A9BC7
:1007D000DB19E2340F9A9342E0D87B099846202334
:1007E0009A4600230026A9461D00059757461EE09D
:1007F0000F29D3D8DCE743465B010F9AD31A1F2B8E
:1008000017D8059B9B199B0807251D401C3F10E02E
:10081000039B981907AB9C4661442200194B9847EB
:100820003619202F24D001351A9BB34224D9202F0A
:10083000E1D0EBB2424669460A740A7C019707A9E7
:10084000009102994846104CA0470490002815D109
:100850004346DB005B199B0000210598984200D9B4
:10086000C11A7B1A1A9A941B9C42D1D91C00CFE75B
:1008700001239C46E044D7E7049C8FE7049C8DE766
:10088000D5010000119D01006105000070B5B2B0F6
:1008900014001D00002A2ED0184B1B681E686B46E2
:1008A000D870998040B200280EDB042221006B46EC
:1008B000981D134B9847002269463000114B98470A
:1008C000002812D032B070BD20222100981D0C4BA0
:1008D0009847002D07D02022290026206844084B85
:1008E00098470122E8E70022E6E7044B19686846CA
:1008F000054B9847E6E7E220E4E7C046E40900201C
:10090000119D0100BD0A0000F50C000070B584B017
:10091000040008A840C80578002E06D0042D11D088
:10092000E220202D03D004B070BDE220FBE70E20B2
:100930006844009020000C4DA8470028F3D1802384
:100940001C4307E00E20684400902000064DA84795
:100950000028E8D10E236B441988002332002000C0
:10096000024CA047DFE7C046910100008D0800005F
:10097000002904D0087000234B7000207047E2204B
:10098000FCE7000010B5041E04D00068024B984735
:100990000023236010BDC0461D970100F0B5D64668
:1009A0004F464646C0B59446002821D08946884621
:1009B00080440023134816E06D00EDB2013E002E86
:1009C0000CD0DF0B5B009BB22C000C40621E9441EC
:1009D000E4B2BC42F0D043409BB2EDE70122924624
:1009E000D144C14505D04A46117808260125E8E7DB
:1009F0000023624613701B0A53701CBC9046994634
:100A0000A246F0BD0580FFFF10B5411C40780238BA
:100A1000C0B20A18014B984710BDC0469D0900009E
:100A200010B515238B70CB78032B08D0002A09D181
:100A300007234B700800054B9847002010BD243356
:100A40004B70F7E70B234B70F4E7C046090A000030
:100A500010B5CA780323134016208870012B03D9E0
:100A6000E220032B07D010BD1B234B700800064B60
:100A700098470020F7E7930602D547234B70F5E728
:100A800027234B70F2E7C046090A000010B51B236C
:100A90008B70143B4B700800014B9847002010BD31
:100AA000090A000010B502238B7005334B70080053
:100AB000014B9847002010BD090A000010B5122311
:100AC0008B700B3B4B70CB787F2B0BD80B234B7071
:100AD000002A02D04B7820334B700800034B984714
:100AE000002010BD27234B70F2E7C046090A000022
:100AF00010B551238B704A3B4B70CA781340032BBF
:100B000006D017234B700800034B9847002010BDF8
:100B100024334B70F7E7C046090A000010B556238E
:100B20008B70CA780A331340202B07D04B7A0B33D3
:100B30004B700800034B9847002010BD053B4B70DD
:100B4000F7E7C046090A000070B582B005000478D6
:100B5000023CE4B201AE320001002000084B98478D
:100B600032782B5DE5209A4201D002B070BD2C197D
:100B700001AB5A7863789A42F7D10020F5E7C04676
:100B80009D09000002780023042A01D01800704754
:100B90004278072A21D0D3B2072B0BD8012A1AD0CA
:100BA000002A1ED0D223032AF0D00433052AEDD028
:100BB000E123EBE70F2A12D0D3B20F2B07D9F3238F
:100BC000112AE3D0D2B21F3BFF2ADFD0F0E7FA238D
:100BD000082ADBD0ECE7D123D8E7D723D6E7F423E4
:100BE000D4E70023D2E7000070B505000C00002810
:100BF00012D0002912D00968002911D0E2206368C0
:100C0000002B0AD06878074B9847002805D1616807
:100C10002800054B984700E0E22070BDE220FCE789
:100C2000E220FAE771090000990F000070B5051E77
:100C30002DD00820174B9847041E11D00420154BC7
:100C40009847061E20600DD02820124B9847606000
:100C500000280CD0210028000F4B984700280DD108
:100C6000200070BD20000D4B98470024F8E73000AD
:100C70000A4DA8472000A8470024F1E76068074D07
:100C8000A8472068A8472000A8470024E8E70024D8
:100C9000E6E7C04609970100E90B00001D97010037
:100CA00010B5E223002803D04068024B98470300A8
:100CB000180010BD1D0F000010B5041E13D00068F1
:100CC000094B98472068094B9847236858680028C3
:100CD00004D0074B9847236800225A602068044BD1
:100CE00098470023236010BDA10C00008509000077
:100CF0001D970100F0B5DE4657464E464546E0B525
:100D000083B081460F004868244B9847041E0AD0E0
:100D10007868234B9847200003B03CBC9046994626
:100D2000A246AB46F0BD4B465A78494678681D4B03
:100D30009847041EECD101201B4B98471B4EC02343
:100D400098461B4B9B461B4B9A464B469D1D424665
:100D500000212800D8476B469A1D4346138029007E
:100D60007868D047041E10D002200F4B9847013EF0
:100D7000002EEAD1CCE728000F4B9847041EC7D1BC
:100D800028000E4B98470400C2E76B46DC88032C12
:100D9000F1D860426041E6300400B9E7E10E00009E
:100DA000010F0000D10E000061190000E3040000F3
:100DB000359E0100D90E0000490B0000850B000094
:100DC0000200413A0123052A06D96138C0B2002346
:100DD000052282425B41DBB21800704710B5020069
:100DE000303A0123092A02D9024B98470300180020
:100DF00010BDC046C10D0000F0B5DE4657464E4658
:100E00004546E0B583B00F1E01929A4657D00400C4
:100E100080468844012600272C4B994601239B4697
:100E20000EE0102329004139052901D8373DEBB2E6
:100E30001B0113705B465E40F6B20134444534D06A
:100E400025782800C8470028F7D053461B68BB42C6
:100E500039D9002E0ED0019BDA1929003039C9B2D8
:100E60000B000929E4D92B00613B052BD9D8573D4C
:100E7000EBB2DDE72A00303AD2B21300092A05D9D5
:100E80002B00613B052B08D8573DEBB2019AD219D4
:100E900015785D1915700137CCE710232A00413A07
:100EA000052AF3D8373DEBB2F0E7E220002E06D159
:100EB00003B03CBC90469946A246AB46F0BD5346B3
:100EC0001F600020F4E7ED20F2E7C046DD0D0000D2
:100ED00010B50369984710BD10B54369984710BD18
:100EE00010B5040083699847D02800D010BDB738EA
:100EF000024B9847A36920009847F7E76119000063
:100F000010B5C369984704000120024B98472000A0
:100F100010BDC046611900004068704710B5E2235B
:100F2000002804D0416A0078024B9847030018005B
:100F300010BDC0466913000070B504000D00406884
:100F4000094B98472B68A3606B68E360AB6823612B
:100F5000EB6863612B69A361AB6923626B69E36131
:100F60002B6A6362002070BD1513000010B58AB0B3
:100F7000040001A9074B9847616801A8A368984736
:100F8000002801D00AB010BD099B6362E36820000D
:100F90009847F7E7390F000010B500280BD0E2237F
:100FA000002906D003780B7048600800034B98476F
:100FB0000300180010BDE223FBE7C0466D0F0000E0
:100FC00070B5B0B005000E0014006846064B984797
:100FD000320029006846054B984721006846044BBB
:100FE0009847002030B070BDA1110000051200002C
:100FF00091120000F0B5DE4657464E464546E0B534
:10100000D5B00B90002A00D1C0E00B0092018918E6
:101010000A910200A8320992604A91465CE0029D62
:10102000019502905846BC462700140002000B258B
:10103000EA4105000626F541554002001336F2410B
:1010400055404A468A58049E8E59B0464244AD18CF
:10105000029A02409046019A824346467240AA187C
:10106000D318039DAB469B4425000D26F541220075
:101070000B3EF2416A4025005646F5416A406546FE
:101080007D40254066463E4075405219D2180431D5
:10109000019B6546039580256D00A942BFD13D00A7
:1010A0006746089B9C4659460C920D940E951091EC
:1010B0001190029B1293019B13930F97634605991E
:1010C000079804C91C68A446624404C38342F8D14B
:1010D000069B0A9A9A4259D014A8402294469C44EE
:1010E00062466446069202001978D1705978917070
:1010F00099785170D978117004330432A342F3D136
:101100004268816B13000724E34114001225EC416F
:101110006340D20853400268446AA44662449B1864
:101120000A001124E2410C000135EC416240890AB9
:101130004A409B180364043044AB9842E0D10B9BB7
:101140008822904643449C460CAB0593624609981E
:1011500002CA02C38242FBD10792139A129B0193E7
:10116000119B029310980F9B98460E9F0D9B0C9C11
:10117000002514A9049116218A4661460891BC46AF
:101180001F0013002900424603924FE755B03CBCB4
:1011900090469946A246AB46F0BDC0460CEA010017
:1011A00010B50400A82200210D4B98470D4A882352
:1011B000E2500D4A0433E2500C4A0433E2500C4A28
:1011C0000433E2500B4A0433E2500B4A0433E2503A
:1011D0000A4A0433E2500A4A0433E25010BDC046C2
:1011E000359E010067E6096A85AE67BB72F36E3C07
:1011F0003AF54FA57F520E518C68059BABD9831FE2
:1012000019CDE05BF0B5D6464F4680B583B00600F9
:101210000D001400406840273F1A974200D917007C
:10122000083030183A002900174B98477368E318C4
:101230003F2B05D8736003B00CBC91469A46F0BDB5
:1012400008239C46B4446346012201936146300062
:101250000E4B9A469847E41BA2099146E9193000C3
:10126000D0474A46531C9B0132689446634433601E
:101270003F231A002240726021009943C91969185E
:101280000198014B9847D6E7119D0100F50F00002A
:10129000F8B505000C0040682B68C7182F60FF00E8
:1012A00009235B421B1A3F261E40431C6B602B1810
:1012B00080221A72321D093028180021134B9847DA
:1012C0006B689C466644AB193A0E1A733A0C5A7313
:1012D0003A0A9A73320008326A60DF739209290071
:1012E000083128000A4B984728008830A83503E0C9
:1012F00004300434A84208D003230278E254026880
:10130000120A0260013BF8D2F2E7F8BD359E0100F7
:10131000F50F00000378F020002B00D070470A4B37
:101320000B600A4B4B600A4BCB600A4B8B600A4B3D
:101330008B610A4B0B610A4B4B610A4BCB6100235B
:101340000B620020EAE7C046D913000085150000B3
:10135000DD15000089150000D11800009917000064
:101360007D1800002519000010B5002801D0E120EB
:1013700010BD0800014B9847FAE7C0462519000048
:1013800010B582B004000F4B1A6801925B6800939D
:10139000D020042901D002B010BD042201A92000F0
:1013A000094B984703000020002BF4D00422694623
:1013B0002000054B98470300D720002BEBD00738BF
:1013C000E9E7C0460CEB0100C59C0100016807225B
:1013D000CB691A42FCD17047F0B5DE464F4646460F
:1013E000C0B582B081460D004C79F020052C05D99E
:1013F00002B01CBC90469946A346F0BD0094342729
:101400006743504B9846B8444346DB6A002B0ADDDD
:10141000342262434B4CA4180133E3624B464246EC
:101420001A620020E4E7484E484B73600023B36023
:101430003373337680229203326101225242F28268
:10144000F36133622532B354B3620832B3540132CC
:10145000B3540132B354D73333861E33FF33B382D0
:10146000FA218900A8683A4B984730606B79052BC0
:1014700066D89B00374AD3589F4634236343842160
:10148000C905304A9950304A334BD361334B13620C
:101490002C4E0437F31934276743B95901931800C8
:1014A0002F4B9847B346BB445A46576801982D4B7B
:1014B00098473B68022213433B605B4658682A4BBF
:1014C00098471F2318401E3B8340284A136000237F
:1014D00010213422009E56431A4A944666440A3626
:1014E0007A8B0A4205D1013332889342F8D3102314
:1014F0007B8334236343134CE4186B792363012308
:10150000E3628BE73423634319490E4A9950BAE7E3
:101510003423634317490B4A9950B4E73423634398
:101520001549084A9950AEE7342363431349054AE5
:101530009950A8E7342363431149024A9950A2E71E
:10154000F02055E71C0A0020E8090020480D0000A3
:10155000AD65010014EB0100020010000200110053
:10156000F9510000CD130000295F000000E100E008
:101570000004004200080042000C0042001000423B
:10158000000400430020704730B585B00D00140002
:101590000F4B984701A903795B080B804D6000232E
:1015A0000B724B728B7203332B7001344C80437976
:1015B000342058430430074B1818074B9847030052
:1015C000F0205A1E93415B42184005B030BDC04622
:1015D000190F00001C0A0020B1580000F0B5D646D3
:1015E0004F464646C0B584B0894690462C4B984736
:1015F0000500846A43461B889A4601AB027952086B
:101600001A8001225A804A46029200221A725A72A5
:101610009A7243461A80ED205346002B05D104B040
:101620001CBC90469946A246F0BD01231D4F1E4E9C
:101630000CE06B79342058430430381801A9B047C6
:10164000F023421E904140420340013C002C1CDD2F
:10165000002BEED14B461B78E420032BDFD99BB245
:1016600009309A45DBD301A9013B4B804B4601333E
:101670004B606B79B938584304300A4B18180A4B41
:101680009847002805D0F020C9E7002BE2D0D8B257
:10169000C5E74B461B78424613800020BFE7C04693
:1016A000190F00001C0A00208D580000F0B5DE461E
:1016B00057464E464546E0B585B003912D4B9847B9
:1016C00043792D4A9046342502935D432C1D4444B2
:1016D000019457197E683000284CA246A0471F2469
:1016E00020401E3C22008240254989468023CA5062
:1016F0000198244A934690478323337533763368A1
:10170000022293433360204E204BF382FA2189005A
:1017100003981F4B98473060414669583200019E3C
:1017200030001C4B98477D683000D8472B68022159
:101730000B432B607868D0471F21084084404946FE
:101740000C60002310203421029A51430A4A944627
:1017500061440A316A8B024205D101330A889342FF
:10176000F8D310236B8305B03CBC90469946A24643
:10177000AB46F0BD190F00001C0A0020295F0000D5
:1017800000E100E0CD130000E80900201027000070
:10179000AD650100F9510000F0B5CE46474680B571
:1017A00087B0040001902D4B98470600876A836834
:1017B00099462B4B994503D019002000294B984797
:1017C0000022002302A90A804A8005AC03940B7210
:1017D0004B728B727379342058430430224B1818A3
:1017E000224B9847B08C224B984733795B0802AA6A
:1017F00013800423538003947C1E002F28DD1A4B92
:1018000098461C4F7379342058430430404402A951
:10181000B8470500013C10D30028F3D1104B99457F
:1018200011D0494601980F4B9847F020002D0AD05F
:1018300007B00CBC90469946F0BD094B9945F4D0D1
:10184000EFE70125EDE7042105A80B4B9847EFE7EB
:10185000034B9945F5D1F020EAE7C046190F000087
:10186000A0860100AD1600001C0A0020B15800003F
:10187000491900008D5800008113000000B585B0A3
:10188000104B984703795B086A4613800123538005
:1018900003AA0192002369460B724B728B720233CA
:1018A00013704379342058430430074B1818074B02
:1018B00098470300F0205A1E93415B42184005B040
:1018C00000BDC046190F00001C0A0020B1580000DE
:1018D00000B585B0104B984703795B086A461380C2
:1018E0000123538003AA0192002369460B724B72B5
:1018F0008B72012313704379342058430430074B13
:101900001818074B98470300F0205A1E93415B427A
:10191000184005B000BDC046190F00001C0A002089
:10192000B158000010B5041E04D0C36A013BC36265
:10193000002B01DD002010BD0430024B984700232E
:10194000E362F7E70555000010B5002803D1012038
:10195000024B984710BD014B9847FBE7D944000064
:1019600010B5002803D10120024B984710BD024B4F
:101970009847FBE7D944000005450000F0B5C6468E
:1019800000B58EB00400C568002D50D04668002E0A
:101990004FD0077803233B400020012B03D90EB022
:1019A00004BC9046F0BDA168002944D00222A35E89
:1019B000002B37DB20226846204B9846984714229C
:1019C000310008A8C047162234236946CA5401339F
:1019D000CF5400220133CA542A0037216846184BDD
:1019E0009847E1684023CA5C10208243CA54E168EA
:1019F000CA5C01388243CA54E168CA5C1130824330
:101A0000CA54E168C85C7F220240CA54E36840338C
:101A10005A7801210A435A70E26800214223D154C6
:101A20000020BCE720222800044B9847F4E7E2207E
:101A3000B5E7E220B3E7E220B1E7C046119D01001F
:101A4000C10F000030B599B004008368002B00D1AD
:101A500093E04369002B00D192E00578032D1CD060
:101A6000C368002B00D18DE0022D04D0E220052DAB
:101A700000D983E019E00379002B00D086E0202212
:101A8000E1686846444B98472379002B12D0042222
:101A9000216908A8404B984718E00169002900D146
:101AA00072E00222835E002B44DB2022E16868465C
:101AB000394B9847152220236946CA540133CD5427
:101AC000638822228B541B0A01328B54A368197A33
:101AD0002422684681541978013281545A78262389
:101AE000C25419220021272068442C4B98472378A0
:101AF000032B24D02022616910A8274B98476269E4
:101B000060216846264B9847636940335A78012123
:101B10000A435A702378022B1BD061694023CA5CA8
:101B200020208243CA546169CA5C11388243CA5476
:101B3000002023E020226846174B9847BAE702228C
:101B4000A35E002BD6DB2022216910A8124B9847F8
:101B5000D5E763880F2BE0D8616940228B5C202099
:101B600003438B54606961880F231940835C0F2401
:101B7000A3430B438354002000E0E22019B030BDA2
:101B8000E220FBE7E220F9E7E220F7E70369002B18
:101B900000D074E7E220F1E7119D0100359E0100BD
:101BA000C10F000010B5054B9847431C05D0C0B2CB
:101BB000034B98471020034B984710BD9D7C0000B5
:101BC0006D3F0000A5F3000010B586B0084B9847A4
:101BD000084B984702AB01221A7100220092064975
:101BE000039A064B0C20064CA04706B010BDC04619
:101BF000E53E00000D2200008413002000000020BC
:101C0000C5E20000F0B5DE4657464E464546E0B513
:101C10008BB0834B1B789846824B1B680193824C98
:101C2000824D01E0C0B2A847A047431CFAD1804BC7
:101C3000804AD35C002B00D1D7E07F4BD35C0133CB
:101C4000DBB29A46002B00D1CDE000239B469146A3
:101C50007A4F4646D846D3461BE05646A64200D8A1
:101C6000C1E0009B5B680393002B2FD02401019BF4
:101C70009C46644443460133DBB298465B46013BD5
:101C8000DBB29B46267B636801935B46002B00D149
:101C9000A9E000230993002E00D1A4E0019D0024B7
:101CA000434602931D33FF335B004B440233B2467D
:101CB0001E000095318849442868B8470028CCD0D8
:101CC0000134E4B210355445F3D18CE0C346009B97
:101CD0009C68002C00D186E05A7B574B5549CB5C61
:101CE00002995B1A934200D07DE0002A14D043464B
:101CF0000133DBB24F4E35004F48591CC9B2113386
:101D0000FF335B00F318DB889BB2002B6BD02A5C9F
:101D1000D2B20B009142F0D91822002104A8484BFE
:101D200098475A465B460133092B65D9931C092B0A
:101D300010D81133FF335B003E49CB18DB889BB2D0
:101D4000002B07D0029B1F33FF335B00CB185B884F
:101D5000C9180591D31C092B10D81133FF335B0030
:101D60003449CB18DB889BB2002B07D0029B203371
:101D7000FF335B00CB185B88C9180691131D092B34
:101D800010D81133FF335B002A49CB18DB889BB294
:101D9000002B07D0029B2133FF335B00CB185B88FD
:101DA000C91807910532092A11D81132FF325200A1
:101DB000204B9A18D3889BB2002B08D01D4A029B57
:101DC0002233FF335B00D3185B88D218089204A833
:101DD000A047099C002C06D020001A4B984781B2DE
:101DE0002000194B9847194B98470BB03CBC9046C4
:101DF0009946A246AB46F0BD1133FF335B000D4957
:101E0000CB18DB889BB2002B00D18FE7029B1E33DF
:101E1000FF335B00CB185B88C918049186E7C04686
:101E20005DEB0100080000209D7C00006D3F00007C
:101E30004E020000981F00204F020000E1A10100A7
:101E4000359E010069A20100313F0000E53E00001F
:101E500070B504000B220D490D4DA8472026A6722F
:101E600020000B3010220B49A847A67620001B301B
:101E70000C220949A8472623E654200027300922CE
:101E80000649A84700223023E25470BD2CEB010024
:101E9000119D010038EB010048EB010054EB0100FB
:101EA00010B5082812D0102812D01B2812D01838CC
:101EB0004342584180008000074BC4582000074B24
:101EC000984781B22000064B984710BD0120F2E7E9
:101ED0000220F0E70320EEE7ECF7010069A2010021
:101EE000313F0000F8B50B78022B03D0042B00D152
:101EF0009CE0F8BD4B7B083BDAB2162AF9D8930078
:101F0000974AD3589F460D7B002D30D08E68002E07
:101F10002DD0944C082294492000944B98472000DF
:101F2000934FB8470104090C091930780A22914BE4
:101F300098472000B84703041B0C2022E2540130CC
:101F400080B20219711C8C4B1B1ADB03013D1B0C68
:101F5000AB4200DD2B00D8B2884B9847814C200063
:101F6000834B984781B22000854B9847C1E70C21ED
:101F70008448834B9847BCE709218348804B9847A6
:101F8000B7E70D2181487E4B9847B2E70D21804885
:101F90007B4B9847ADE706217E48794B9847A8E7E9
:101FA0001E217D48764B9847A3E70D217B48744B53
:101FB00098479EE709217A48714B984799E70D2188
:101FC00078486F4B984794E7152177486C4B9847B2
:101FD0008FE70A2175486A4B98478AE711217448B0
:101FE000674B984785E70A217248654B984780E719
:101FF00004217148624B98477BE707216F48604B8B
:10200000984776E710216E485D4B984771E7142199
:102010006C485B4B98476CE70F216B48584B9847CF
:1020200067E70E216948564B984762E70B791E2BEC
:1020300000D95EE79B00664AD3589F460921654850
:102040004F4B984755E70B2163484D4B984750E756
:102050000D2162484A4B98474BE710216048484B96
:10206000984746E70A215F48454B984741E70F21CB
:102070005D48434B98473CE711215C48404B9847EB
:1020800037E70A215A483E4B984732E71221594810
:102090003B4B98472DE710215748394B984728E785
:1020A00012215648364B984723E709213648344BCE
:1020B00098471EE70D213548314B984719E70D2108
:1020C00033482F4B984714E7062132482C4B98474A
:1020D0000FE71E2130482A4B98470AE70D212F4869
:1020E000274B984705E709212D48254B984700E7DE
:1020F0000D212C48224B9847FBE615212A48204BFE
:102100009847F6E60A2129481D4B9847F1E6112128
:1021100027481B4B9847ECE60A212648184B98475E
:10212000E7E604212448164B9847E2E607212348B6
:10213000134B9847DDE610212148114B9847D8E60C
:10214000142120480E4B9847D3E60F211E480C4B14
:102150009847CEE60E211D48094B9847C9E6C04670
:10216000B4F401006C1100208CF50100119D0100F8
:1021700069A20100BD960100120200002941000081
:10218000313F000094F50100A4F50100B0F5010015
:10219000C0F50100D0F50100D8F50100F8F5010007
:1021A00008F6010014F6010024F601003CF60100D7
:1021B00048F601005CF6010068F6010070F60100C7
:1021C00078F601008CF60100A4F60100B4F60100D7
:1021D00010F50100C4F60100D0F60100DCF60100A4
:1021E000ECF6010000F701000CF701001CF70100FC
:1021F00030F701003CF7010050F7010064F70100DF
:10220000014B18807047C046881F002010B5044954
:102210000448054B98470022044B1A8010BDC04665
:10222000A11E0000E51E0000F5020100881F00202D
:10223000F0B5D646474680B585B007002F4D00243F
:102240002F4B9A46E3B2984601942E6831003868C5
:10225000D04700280DD001340435102CF2D1063CB3
:10226000A400284BE3587B6105B00CBC90469A460D
:10227000F0BD02AB9C1D00232380220000213430DE
:10228000214B98472388019A1341DB0705D431007D
:102290001E481F4B98471624E2E71E4B984700281C
:1022A00018D002AB5C1DFF2323701B4B9847220004
:1022B00000212320144B98472378434513D0174B14
:1022C00098474046164B9847040008280FD1154BF5
:1022D00098470EE04046124B98470400082808D162
:1022E000104B984705E040460D4B984704000A4BB9
:1022F000984700220C4B1A80B2E7C046ACF70100A9
:10230000A142000020F801002919010084F7010012
:10231000E99E010011E1000075E1000059E10000B3
:10232000A53E010061E20000881F002010B50400F6
:10233000084A09490068094B98470A23012804D92B
:102340009B00074A9B58636110BD064B98470300EA
:10235000F6E7C04678F701007CF70100654300000E
:1023600020F801005D120100F0B585B0070080681B
:102370001D4B984704001D4A1D4938681D4B98475E
:102380000190060002ABD91D78681B4B98470A23C1
:10239000002805D0A4B26508FF2D01D8012E05D96B
:1023A0009B00164A9B587B6105B0F0BDB868144B82
:1023B00098470A230028F3D0124AB9682000124B2C
:1023C0009847E30700D5013510486B461B79037029
:1023D00002AB07331B7843700A4B436005720C4B0A
:1023E00098470300DCE7C04669A20100A0F701009E
:1023F000A4F70100654300008941000020F80100B6
:10240000F54000006C110020FD4300008C1F0020EF
:10241000CD04010010B582B004006B46D91D0068E0
:10242000084B98470A23002805D19B00064A9B5871
:10243000636102B010BD6B46D91D0720034B98475E
:102440000300F2E78941000020F801006D39010026
:1024500070B582B006006B46DD1D2A000021072002
:10246000054B9847054C28780A222100044B9847D1
:10247000746102B070BDC046291901006C110020C2
:10248000BD96010010B582B004000068094B984762
:102490006B46D8710A23012805D99B00064A9B5830
:1024A000636102B010BD6B46D91D0620034B9847EF
:1024B0000300F2E73143000020F801006D3901000C
:1024C00030B583B005006B46DC1D220000210620DC
:1024D000044B984723789B00034A9B586B6103B0D9
:1024E00030BDC0462919010000F8010010B582B0C6
:1024F00004000068144B98470A23002805D19B006C
:10250000124A9B58636102B010BD01AA21680820DD
:102510000F4B98470A230028F1D001AA93781B0299
:10252000517809045B18D1785B18127812069B1851
:10253000009369460220074B9847030006490A7832
:10254000082002430A70DAE7F540000020F8010095
:10255000FD4300006D390100881F002030B583B0B5
:10256000050001AA00210220094B9847019B6A46F9
:10257000D3701A0A69468A701A0C4A701B0E0B70C7
:10258000044C22000420044B98476C6103B030BD1A
:10259000291901006C1100202941000010B5040028
:1025A00000680E4B98470A23002804D19B000C4A70
:1025B0009B58636110BD0B4A216810200A4B984755
:1025C0000A230028F2D007490020084B984703004F
:1025D00007490A78012002430A70E7E7F540000046
:1025E00020F801006C110020FD4300006D3901004E
:1025F000881F002030B583B005006A460021002006
:10260000054B9847054C220069460820044B984723
:102610006C6103B030BDC046291901006C11002067
:102620002941000010B5040000680E4B98470A23AA
:10263000002804D19B000C4A9B58636110BD0B4AD3
:10264000216810200A4B98470A230028F2D0074936
:102650000120084B9847030007490A7802200243EB
:102660000A70E7E7F540000020F801006C11002037
:10267000FD4300006D390100881F002030B583B094
:1026800005006A4600210120054B9847054C2200B1
:1026900069460820044B98476C6103B030BDC046C2
:1026A000291901006C1100202941000010B5040017
:1026B00000680E4B98470A23002804D19B000C4A5F
:1026C0009B58636110BD0B4A216820200A4B984734
:1026D0000A230028F2D007490420084B984703003A
:1026E00007490A78102002430A70E7E7F540000026
:1026F00020F801006C110020FD4300006D3901003D
:10270000881F002010B5040000680E4B98470A236C
:10271000002804D19B000C4A9B58636110BD0B4AF2
:10272000216820200A4B98470A230028F2D0074945
:102730000520084B9847030007490A7820200243E8
:102740000A70E7E7F540000020F801006C11002056
:10275000FD4300006D390100881F002010B5040002
:1027600000680E4B98470A23002804D19B000C4AAE
:102770009B58636110BD0B4A216820200A4B984783
:102780000A230028F2D007490320084B984703008A
:1027900007490A78042002430A70E7E7F540000081
:1027A00020F801006C110020FD4300006D3901008C
:1027B000881F002030B585B004000A22002140683F
:1027C000144B984705000822002101A8124B984796
:1027D0000F2169442068114B98470A23002805D12E
:1027E0009B000F4A9B58636105B030BD01225242E5
:1027F0000A2160680B4B98470A230028F0D001A9F2
:1028000005336B441B780B704D601A20064B9847BC
:102810000300E5E775A50100359E01008941000030
:1028200020F801005D4200006D39010030B583B031
:1028300004000D4B43616B46D91C00680B4B984755
:10284000002801D103B030BD01AA6B46D91C1A2063
:10285000074B98470828F5D1064D0A220199280010
:10286000054B98476561EDE7B0F50100894100002F
:10287000291901006C110020E1410000F0B5CE469D
:1028800000B586B006004068234B984701900500CC
:102890000F2102AB9C4661443068204B98470A23C5
:1028A000002801D0012D07D99B001D4A9B58736158
:1028B00006B004BC9146F0BD053302AA94466344B9
:1028C0001A78511E0A230729EED8CC00E4B2D300AF
:1028D000013B9C4214DC03AF6B1E9D41114B99469A
:1028E0003C703D7139001C20C8470134E4B20F230D
:1028F00002AA944663441A78D300013B9C42EFDD60
:1029000003A93F320A70019A531E9A410A711C2092
:10291000044B98470300C7E731430000894100009A
:1029200020F801006D390100F0B5C64600B582B04F
:102930000600234B43616B46D91D0068214B984725
:10294000002830D06B46DA79531E072B2BD8DC00D9
:10295000E4B2D300013B9C421BDC6B46DD1D1A4FE9
:102960001A4B984606E00134E4B22A78D300013BC2
:102970009C420EDC6B469A1D29001C20B847082893
:10298000F1D16B4606331B789B0042469B5873611E
:10299000E9E76B46591D3F320A709A1D1C200A4B0D
:1029A0009847082803D002B004BC9046F0BD6B469F
:1029B00006331B789B00054A9B587361F3E7C046BA
:1029C000B0F50100894100002919010000F801005B
:1029D00070B584B004000822002101A8114B98476B
:1029E0006068114B984705000F21694420680F4B20
:1029F00098470A23002801D0012D05D99B000C4AD5
:102A00009B58636104B070BD01A905336B441B780A
:102A10000B706B1E9D410D711C20064B98470300E7
:102A2000ECE7C046359E01003143000089410000BB
:102A300020F801006D39010010B582B004000D4B83
:102A400043616B46991D00680B4B9847002801D1E4
:102A500002B010BD6B46DA1D991D1C20074B98472C
:102A60000828F5D16B4607331B789B00044A9B5816
:102A70006361EDE7B0F5010089410000291901000B
:102A800000F8010010B584B004000822002101A85C
:102A90001C4B98470F21694420681B4B98470A2319
:102AA000002805D19B00194A9B58636104B010BDF2
:102AB0000E2169446068144B98470A230028F1D01E
:102AC0000D216944A068104B98470A230028E9D0DB
:102AD00004336B4418780A230F28E3D803336B447C
:102AE0001A780A230F2ADDD801A905336B441B7815
:102AF0000B70120102430A711B20054B984703001B
:102B0000D0E7C046359E01008941000020F8010051
:102B10006D390100F0B583B00400154B43616B467D
:102B2000D91D0068134B9847002801D103B0F0BDB0
:102B30006B469A1DD91D1B200F4B98470828F5D1CD
:102B40006B469E790D4D073030400A2229000C4F0C
:102B5000B84728000B4B984703041B0C2022EA546B
:102B6000013081B249193009163AB8476561DDE78D
:102B7000B0F5010089410000291901006C11002005
:102B8000BD96010069A2010010B582B004006B4639
:102B9000D91D0068084B98470A23002805D19B00DF
:102BA000064A9B58636102B010BD6B46D91D0820D0
:102BB000034B98470300F2E78941000020F8010029
:102BC0006D39010070B582B006006B46DD1D2A002C
:102BD00000210820054B9847054C28780A2221003F
:102BE000044B9847746102B070BDC04629190100BA
:102BF0006C110020BD96010070B50500044B98478C
:102C00000100044C0A222000034B98476C6170BD00
:102C1000090601006C110020E141000010B504001C
:102C2000024B9847024B636110BDC046CD060100C0
:102C30009CF70100014B43617047C0469CF70100BF
:102C400030B585B004000A2200214068124B984735
:102C500005000F2169442068104B98470A2300287B
:102C600005D19B000E4A9B58636105B030BD01221F
:102C700052420A2160680B4B98470A230028F0D083
:102C800001A905336B441B780B7101951520064B88
:102C900098470300E5E7C04675A50100894100009B
:102CA00020F801005D4200006D390100F0B583B0ED
:102CB0000400114B43616A46002115200F4B9847D1
:102CC000082801D003B0F0BD009F6B4619790C4D68
:102CD0000A2228000B4EB04728000B4B9847FF23D1
:102CE00003402022EA540130C0B24019163A39009C
:102CF000B0476561E6E7C046B0F50100291901005B
:102D00006C110020E141000069A2010070B584B09F
:102D1000040000680F4EB04702AD28800A2201A9C6
:102D200060680D4B98476880A068B047A880E0684D
:102D3000B047A8712069B047431E9841E871290047
:102D40002720064B98478000054BC358636104B0A9
:102D500070BDC0463996010075A501006D390100AE
:102D600020F80100F0B5CE46474680B583B0050097
:102D70006A4600212720274B98478200264BD358CC
:102D80006B61082804D003B00CBC90469946F0BD96
:102D90006B461988214C0A222000214EB0472000A2
:102DA000204B99469847FF273B000340202290463E
:102DB000E2540130C1B209196B460220185E0A22A2
:102DC000194B98472000C8473B0003404246E25455
:102DD0006B4699880130C0B200190A22B047200022
:102DE000C8473B0003404246E2546B4699790130A4
:102DF000C0B200190A22B0472000C8470740434626
:102E0000E3556B46D9790130C0B200190A22B047A8
:102E10006C61B8E72919010020F801006C1100204D
:102E2000E141000069A20100BD96010010B5040057
:102E3000024B9847024B636110BDC046A5070100D5
:102E40009CF7010010B582B004000A22002100683E
:102E50000B4B98470190012252420A212068094BEE
:102E600098470A23002805D19B00074A9B586361B5
:102E700002B010BD01A90A20044B98470300F3E7F4
:102E800075A501005D42000020F801006D390100C8
:102E900010B582B004000A22002100680B4B98474D
:102EA0000190012252420A212068094B98470A23C7
:102EB000002805D19B00074A9B58636102B010BDF2
:102EC00001A90B20044B98470300F3E775A5010007
:102ED0005D42000020F801006D390100F8B50400E2
:102EE00005682800104B9847060028000F4B9847AC
:102EF0000A23002806D0276838000B4B98470A237E
:102F0000022804D09B000A4A9B586361F8BD094D12
:102F1000B0B22A003900084B984729000920074B16
:102F200098470300EEE7C04669A20100F5400000A3
:102F300020F801006C110020FD4300006D390100F4
:102F400030B583B005006B46DA1D00210920064B21
:102F50009847064C22006B46D91D0120044B984728
:102F60006C6103B030BDC046291901006C1100200E
:102F70002941000030B583B0050001AA00210A20D4
:102F8000054B9847054C0A2201992000044B9847AD
:102F90006C6103B030BDC046291901006C110020DE
:102FA000E141000030B583B0050001AA00210B20EB
:102FB000054B9847054C0A2201992000044B98477D
:102FC0006C6103B030BDC046291901006C110020AE
:102FD000E141000010B582B004000A22002100681F
:102FE0000C4B98476B46D8800B4A052120680B4B49
:102FF00098470A23002805D19B00094A9B58636122
:1030000002B010BD6B46991D1820064B984703006F
:10301000F2E7C04675A50100FFFF00005D42000019
:1030200020F801006D39010070B582B006006B46D2
:103030009D1D2A0000211F20054B9847054C28881C
:103040000A222100044B9847746102B070BDC0464B
:10305000291901006C1100202DA6010010B582B0C5
:10306000040000680C4B98476B46D880FF22022171
:1030700020680A4B98470A23002805D19B00084A7C
:103080009B58636102B010BD6B46991D1F20054B14
:1030900098470300F2E7C046399601005D42000000
:1030A00020F801006D39010070B582B0050000689C
:1030B0000D4B98476B46D8710A24012805D9A40006
:1030C0000A4BE3586B6102B070BD6B46DE1D3100E8
:1030D0003E20074B984704003078431E9841C0B209
:1030E000044B9847EBE7C0463143000020F801004D
:1030F0006D390100F1DA000010B582B004000068FB
:10310000094B98476B46D8710A23012805D99B00C3
:10311000064A9B58636102B010BD6B46D91D322030
:10312000034B98470300F2E73143000020F8010009
:103130006D39010030B583B0050001AA00212020BF
:10314000094B9847019B6A46D3701A0A69468A70F0
:103150001A0C4A701B0E0B70044C22000420044B06
:1031600098476C6103B030BD291901006C11002033
:103170002941000010B582B0040000680C4B98474C
:103180006B46D871FF22032120680A4B98470A2317
:10319000002805D19B00084A9B58636102B010BD0E
:1031A0006B46D91D1720054B98470300F2E7C04630
:1031B000399601005D42000020F801006D390100E0
:1031C00010B582B0040000680C4B98476B46D8716C
:1031D000FF22032120680A4B98470A23002805D1C3
:1031E0009B00084A9B58636102B010BD6B46D91D15
:1031F0001320054B98470300F2E7C04639960100BB
:103200005D42000020F801006D39010010B582B068
:10321000040000680C4B98476B46D871FF220321CD
:1032200020680A4B98470A23002805D19B00084ACA
:103230009B58636102B010BD6B46D91D1420054B2D
:1032400098470300F2E7C046399601005D4200004E
:1032500020F801006D39010070B582B006006B46A0
:10326000DD1D2A0000211320054B9847054C2878C6
:103270000A222100044B9847746102B070BDC04619
:10328000291901006C1100202DA6010070B582B033
:1032900006006B46DD1D2A0000211420054B9847CF
:1032A000054C28780A222100044B9847746102B02B
:1032B00070BDC046291901006C1100202DA6010027
:1032C00070B582B006006B46DD1D2A00002121206A
:1032D000054B9847054C28780A222100044B984753
:1032E000746102B070BDC046291901006C11002044
:1032F0002DA6010070B582B006006B46DD1D2A00C8
:1033000000212220054B9847054C28780A222100ED
:10331000044B9847746102B070BDC0462919010082
:103320006C1100202DA6010010B582B004000068C9
:10333000094B98476B46D8710A23012805D99B0091
:10334000064A9B58636102B010BD6B46D91D16201A
:10335000034B98470300F2E73143000020F80100D7
:103360006D39010030B583B005006B46DC1D2200CD
:1033700000211620044B984723789B00034A9B5852
:103380006B6103B030BDC0462919010000F801008F
:1033900010B582B0040000680C4B98476B46D8808B
:1033A0000B4A052120680B4B98470A23002805D1BA
:1033B0009B00094A9B58636102B010BD6B46991D82
:1033C0000C20064B98470300F2E7C04639960100EF
:1033D000FFFF00005D42000020F801006D39010090
:1033E00070B582B006006B469D1D2A0000210C209E
:1033F000054B9847054C28880A222100044B984722
:10340000746102B070BDC046291901006C11002022
:103410002DA6010070B582B006006B469D1D2A00E6
:1034200000211E20054B9847054C28880A222100C0
:10343000044B9847746102B070BDC0462919010061
:103440006C1100202DA6010030B583B005006B463D
:10345000DC1D220000212320044B984723789B0089
:10346000034A9B586B6103B030BDC0462919010067
:10347000ACF7010010B582B0040003681B7820226D
:103480009343412B08D00A20432B0DD080000A4BD8
:10349000C358636102B010BD6B46D91D01230B7088
:1034A0001920064B9847F1E76B46D91D04230B7092
:1034B0000F30024B9847E9E720F801006D39010011
:1034C00030B583B005006B46DC1D220000211920B9
:1034D0000A4B98472378022B05D0042B0AD0012BE6
:1034E0000AD0032300E001239B00054A9B586B612F
:1034F00003B030BD0223F7E70023F5E729190100E7
:1035000010F8010030B583B005006B46DC1D2200C9
:1035100000212420114B98472378032B0AD0052B38
:1035200012D00F4B41221A7000225A700C4B6B6163
:1035300003B030BD0A4B41221A701B3A5A701C323C
:103540009A700022DA70F1E7054B41221A701B3A9B
:103550005A701D329A700022DA70E7E729190100CB
:103560006C11002010B504000068054B9847012835
:1035700002D9044B636110BD6068034B9847F8E7BC
:1035800031430000B0F501003996010010B582B05A
:10359000040000680C4B98476B46991D0870DA1DB3
:1035A00028200A4B9847082805D08000084BC358AC
:1035B000636102B010BD6B4607331B789B00054A60
:1035C0009B586361F5E7C04639960100291901004F
:1035D00020F8010000F8010070B582B00500006815
:1035E0000C4B98476B46D91C087001AA2C200A4B3B
:1035F000984704000A2201990848094B9847082C6B
:1036000005D0A400074BE3586B6102B070BD034BBB
:103610006B61FAE739960100291901006C1100204D
:10362000E141000020F8010010B582B004000068FC
:103630000B4B9847002803D10A4B636102B010BDC1
:1036400001AA21680820084B98470028F4D0606838
:10365000064B9847064A137840210B431370EBE75B
:10366000F5400000B0F50100FD430000399601006F
:10367000881F002030B585B004000068104B9847C3
:103680006B46D91D087003AA29200E4B9847039B4F
:1036900002AAD370190A9170190C51701B0E137085
:1036A000082805D08000084BC358636105B030BDC1
:1036B000064D2A0002A90438054B98476561F5E7D5
:1036C000399601002919010020F801006C11002031
:1036D0002941000010B586B0040000680C4B9847E3
:1036E000002803D10B4B636106B010BD6B465A1D19
:1036F00021682020084B98470028F3D06068074BCA
:103700009847074A117880235B420B431370E9E71F
:10371000F5400000B0F50100FD43000039960100BE
:10372000881F002010B586B0040000680C4B984735
:10373000002803D10B4B636106B010BD6B465A1DC8
:1037400021682020084B98470028F3D06068074B79
:103750009847074A537801210B435370EAE7C04664
:10376000F5400000B0F50100FD430000399601006E
:10377000881F002010B504000A22002100680B4BAE
:103780009847012252420A212068094B9847002895
:1037900002D1084B636110BD6068074B9847074A28
:1037A000537802210B435370F3E7C04675A501001F
:1037B0005D420000B0F5010039960100881F00202D
:1037C00070B582B0050000680C4B98476B46D91C59
:1037D000087001AA2F200A4B984704000A22019979
:1037E0000848094B9847082C05D0A400074BE3581C
:1037F0006B6102B070BD034B6B61FAE73996010053
:10380000291901006C110020E141000020F801009D
:1038100010B582B004006B46591D0068054B9847EF
:10382000002803D1044B636102B010BD6068034BF4
:103830009847F7E789410000B0F50100399601008B
:1038400030B583B0040000680C4B98476B46991D57
:103850000870DA1D30200A4B9847082805D08000F0
:10386000084BC358636103B030BD074D6B46D87930
:103870000A222900054B98476561F4E73996010053
:103880002919010020F801006C110020BD960100EB
:1038900070B582B006006B469D1D2A0000213520C0
:1038A000054B9847054C0023E85E0A222100044B93
:1038B0009847746102B070BD291901006C11002095
:1038C000BD96010030B583B005006B46DC1D2200BB
:1038D00000213620044B984723789B00034A9B58CD
:1038E0006B6103B030BDC0462919010008F8010022
:1038F00030B583B005006B46DC1D22000021372067
:10390000044B984723789B00034A9B586B6103B094
:1039100030BDC0462919010008F8010070B582B019
:1039200006006B46DD1D2A0000213820054B984714
:10393000054C28780A222100044B9847746102B094
:1039400070BDC046291901006C1100202DA6010090
:1039500030B583B0050001AA00213920054B9847F6
:10396000054C0A2221000198044B98476C6103B072
:1039700030BDC046291901006C1100202DA60100A0
:10398000014B43617047C0466C110020014B4361FD
:103990007047C0466C11002070B582B006006B46BF
:1039A0009D1D2A0000213B20054B9847054C288887
:1039B0000A222100044B9847746102B070BDC046D2
:1039C000291901006C1100202DA6010030B583B02B
:1039D000050001AA00213C20054B9847054C0A220E
:1039E00021000198044B98476C6103B030BDC0467C
:1039F000291901006C1100202DA6010010B582B01C
:103A0000040000680A4B98470A23012805D99B0047
:103A1000084A9B58636102B010BD6B46D91D431E16
:103A2000984108703320044B98470300EFE7C046E5
:103A30003143000020F801006D39010010B582B05B
:103A400004006B46D91D0068084B98470A230028DC
:103A500005D19B00064A9B58636102B010BD6B46BE
:103A6000D91D3D20034B98470300F2E78941000030
:103A700020F801006D39010010B582B004006B46DA
:103A8000DA1D00213320094B9847082805D0800013
:103A9000074BC358636102B010BD6B4607331B78F8
:103AA0009B00044A9B586361F5E7C0462919010051
:103AB00020F8010000F8010010B50400044B9847FD
:103AC000044B984721000448044B984710BDC0465A
:103AD000857F0000257A0000CCF90100E99E0100F5
:103AE00010B5094B9847094B1B78002B00D110BD2E
:103AF000074B9847074B98470748084B98470022C1
:103B0000024B1A70F3E7C046D1820000540B00202C
:103B1000857F0000257A0000ACF90100E99E0100D4
:103B200030B583B005006846054B9847054C220028
:103B300069460820044B98476C6103B030BDC0460D
:103B4000818200006C1100202941000070B5050041
:103B5000024C2000024B98476C6170BD6C11002034
:103B6000511E000070B5050000210C20054B984740
:103B7000054C064B18680A222100054B98476C61DA
:103B800070BDC04645E000006C110020801300208D
:103B90002DA6010010B504000A22002100680E4B7A
:103BA00098470E4B1860012252420A2120680C4BA4
:103BB00098470123002804D19B000A4A9B5863615F
:103BC00010BD064B19680848084B984700210C2087
:103BD000074B98470023EFE775A5010080130020ED
:103BE0005D420000C0F9010090F90100E99E01006A
:103BF000E1DF000030B585B005000922002101A8F1
:103C0000094B9847094B1B78002B08D1084C220020
:103C100001A90920074B98476C6105B030BD01A888
:103C2000054B9847F2E7C046359E0100A80F0020DB
:103C30006C110020294100001106000070B588B009
:103C4000050003AC1122002120000E4B98473023C1
:103C500023700D4B1B78002B08D10C4C112203A9AB
:103C600020000B4B98476C6108B070BD03AC10236B
:103C70000093230000220A210220064EB0470023B1
:103C80002374EAE7359E0100A80F00206C11002084
:103C9000119D01007D07000030B585B005000822A8
:103CA000002102A80B4B98470B4B1B78002B08D127
:103CB0000A4C220002A90820094B98476C6105B004
:103CC00030BD0823009302AB002209210220054CDD
:103CD000A047EDE7359E0100A80F00206C110020E1
:103CE000294100007D07000070B58AB005000A2256
:103CF000002103A8124B9847124B1B78002B08D1C8
:103D0000114C220003A90A20104B98476C610AB09D
:103D100070BD07A80E4B984706AC02230093230002
:103D200046220A2102200B4EB047228803AB1A809C
:103D3000082207A90E206844074B9847E0E7C046D1
:103D4000359E0100A80F00206C11002029410000C1
:103D5000110600007D070000119D0100BFF34F8F89
:103D6000034A044BDA60BFF34F8FC046FDE7C046FD
:103D70000400FA0500ED00E010B5054B9847BFF3CD
:103D80004F8F044A044BDA60BFF34F8FC046FDE704
:103D900059E100000400FA0500ED00E030B585B0FF
:103DA000040001AB00220192FF21197103920A3233
:103DB00000214068244B9847050024492068244B83
:103DC0009847002809D023492068214B98470028AC
:103DD00038D0214B636105B030BD00221F49204B14
:103DE000EB188B42F5D801951E4B039313005A1E16
:103DF0009341013301AA137101221B4B1A701B4B13
:103E000018781B4B98470028E5D000236A461370AA
:103E100001335370937069460420164DA8476946D4
:103E20000520A847144B9847144B984701A8144BFA
:103E300098470028CFD1134B9847134B9847134B03
:103E40006361C8E70122C9E775A5010098F901007F
:103E5000A1420000A0F90100B0F50100C8BBCE07E7
:103E600018FCFFFFB93A0000540B0020550B00204E
:103E7000294101001D4E0000717B0000A97F000058
:103E800055830000857F0000257A0000A8F9010015
:103E900010B584B001AC2000074B98471C23019358
:103EA000002363600233E372013BA3722100082008
:103EB000024B984704B010BDB5490000C949000045
:103EC00010B5002208210448044B9847002108201F
:103ED000034B984710BDC046E13A0000754800000A
:103EE000A148000070B50B4C00230B4AA3540B4AA9
:103EF000A3540132A3520A4AA3520A4BE0181422D7
:103F00000021094DA847094BE01814220021A847B9
:103F100070BDC046981F00204E0200004F020000F6
:103F20005202000026020000359E01003A02000005
:103F300070B505000C1E0FD00A4E07E0FF212800C7
:103F4000B047FF3CA4B2FF35002C05D0FF2CF5D8BC
:103F5000E1B22800034B984702210348014B9847E0
:103F600070BDC046DD7B0000E0F9010070B5082897
:103F700047D094239B00584AD35A9BB2892292007F
:103F8000934200D9A1E0202800D173E0524B942144
:103F900089005A5A92B2541CA4B25C5298544F48A9
:103FA0001A5A013292B21A525B5A9BB2012B59D95A
:103FB000494A535A023BD35C0D2B53D1535A013B10
:103FC000D35C0A2B4ED113000C00525A023A002146
:103FD0009954434D5A5D195A023989B21132FF3250
:103FE00052009A18D1805A5D195B185A091A89B281
:103FF0001D32FF3252009A1851800121394A9954DA
:1040000030E094239B00344AD35A9BB2002B29D032
:1040100094239B00D35A013BD35C002B23D1130084
:104020002F49525C013AD2B25A545A5C1132FF32D3
:1040300052009A18D28892B228481A525A5C113209
:10404000FF3252009A180020D0805A5C1D32FF3295
:1040500052009B1858802049942292008B5A013BB1
:104060009BB28B5270BD1C491C4A8B5A013B9BB2C0
:104070008B52F0E71A4B184AD35CDBB2082B24D8DA
:10408000130094218900525A92B2501C80B25852A7
:1040900000259D5412481A5C104C1E5BB6B21132BA
:1040A000FF3252009A18D6801A5C595A1E5B0139A9
:1040B000891B89B21D32FF3252009A1851801A5C56
:1040C0000132D2B21A541D53CCE7074B9847032153
:1040D0000648074B9847C5E7981F0020520200008A
:1040E0004F0200004E020000E53E0000A8F901006A
:1040F000313F000070B50378002B0ED00400094E4C
:104100004425B0472378C01843781D4207D00134B6
:104110002378002BF5D1012002E0012000E00020EF
:1041200070BDC046ED960100F0B5CE46474680B55D
:1041300083B080460192002819D00C001500471E5C
:10414000FFB20137CF190F4E3023994603E00134F7
:104150000235BC420BD0207810222900B0472378CA
:104160000F2BF4D82B786B704B462B70EFE7434640
:104170005B0000220199CA5403B00CBC90469946DA
:10418000F0BDC046BD960100F0B583B004000191BA
:10419000104B9847060020000F4B98470700B6B217
:1041A000032E14D8FF2812D82378002B0BD00B4DE8
:1041B0000426A8472378C01843781E4207D001344C
:1041C0002378002BF5D1019B1F70012000E0002017
:1041D00003B0F0BD69A2010039960100ED9601001F
:1041E000F0B5D64600B58EB003900C0001920025C4
:1041F000184B9A4605AF184E09E03731E955019939
:104200002000B04704006B1C002809D01D00029557
:1042100001992000D0470929EFDC3031E955EEE75C
:10422000029B002B14DB05AB5B19039A04A9C81C85
:1042300019781170013B01328342F9D1029E013697
:104240000023039A935510000EB004BC9246F0BDB3
:104250000026F5E7B9660100AD65010070B584B0D0
:10426000050016000A2200210A4B984704000A2282
:10427000010001A8084B984701A92800074B98475F
:1042800003000020B44201D904B070BD5842584127
:10429000C0B2F9E775A50100E1410000E1A101000C
:1042A000F0B5DE4657464E46C0B582B004000E005B
:1042B000002806D0002909D01C4B9B4603279A46AC
:1042C00011E000292FD00878404226E0007824E051
:1042D000203501950FE0D3B2994519D12378002BF1
:1042E00016D0013401362578D847401943783B4031
:1042F0000195012BECD06B461B7999463578D04758
:10430000401943783B402A00012BE4D12032E2E7F8
:10431000FF20019F07401040381A02B01CBC914694
:104320009A46A346F0BD0020F7E7C046ED9601008F
:1043300010B504000849094B98470023002801D113
:10434000180010BD06492000044B98470300581E72
:1043500083410133F4E7C04674F90100A142000033
:1043600078F9010070B504001500084B9847002348
:10437000002801D1180070BD29002000034B984788
:104380000300581E83410133F4E7C046A1420000F8
:10439000F8B5CE46474680B50700164B984701381A
:1043A0000026072821D8041E1CDB0125124B994644
:1043B000442398460AE01A00303A402B01D9373B93
:1043C0001A006A43B6182D01013C0ED4C8473B5D64
:1043D000C01842784146114206D0602BEBD9573BBA
:1043E0001A00EEE7002600E0042630000CBC9046E0
:1043F0009946F8BD69A20100ED960100F0B5DE46D0
:1044000057464E464546E0B583B004000F0090463F
:1044100008001F4B984783B25D08DA0701D4013DBD
:10442000ADB20020A34206D003B03CBC90469946F2
:10443000A246AB46F0BD002C27D001AE00239A4621
:10444000144B994613E0302333703B19013B1B7822
:104450007370013CA4B25346B370AB46C344300002
:10446000C8475B461870013DADB2002C0BD0012C43
:10447000E9D93B199A1E12783270013B1B78737090
:10448000023CA4B2E7E70120CEE70120CCE7C0461A
:1044900069A201009143000070B50020084B9847C5
:1044A0000500084CFA218900A047074B186007490E
:1044B0002800A047064B18600522064B1A6070BD05
:1044C000D1700000AD6501000C00002040420F00DB
:1044D0001000002010E000E030B5084B1C68084ACE
:1044E000002580214902013807D3002CFBD05460FD
:1044F000956013680B42FCD0F5E730BD100000203A
:1045000010E000E030B5084B1C68084A0025802107
:104510004902013807D3002CFBD054609560136822
:104520000B42FCD0F5E730BD0C00002010E000E0AD
:104530000C4B1B68002B06D1EFF31083002B07D028
:104540000022094B1A70074A136801331360704741
:1045500072B6BFF35F8F0022044B1A700132024B18
:104560001A70F0E7580B00205C0B002014000020AC
:10457000084B1A68013A1A601B68002B09D1064BD8
:104580001B78002B05D00122044B1A70BFF35F8FFC
:1045900062B67047580B00205C0B0020140000200E
:1045A000F0B5C64600B582B001AC012565700023A8
:1045B0009846A370257021001320124EB047124F69
:1045C00080231B03BB61257021001220B04780238C
:1045D000DB02BB61257021000D20B04780239B01C9
:1045E0007B61257021000920B04780239B007B61FF
:1045F00043462370657021001C20B04702B004BC04
:104600009046F0BD1D4E00000028004070B52F4BB5
:104610001C6823689A795D791540EA072AD501223A
:104620009A716269931C636123689B8C9BB21380AF
:10463000238B013B9BB22383002B15D0637F002B80
:1046400018D02268D3795BB2002B13DB138C9BB29A
:10465000002BFBD1137E02210B4313762268138CAF
:104660009BB2002BFBD105E0012322681371237F4D
:10467000052B16D06B0708D5042322689371E37EBF
:104680009B0702D5A37E9B0717D4AB0708D502234F
:1046900022689371E37E5B0702D5A37E5B0710D48B
:1046A00070BD00232377E37EDB07E3D5A37EDB0722
:1046B000E0D52000A3689847DCE72000E36898472E
:1046C000E3E7236920009847EAE7C046EC21002091
:1046D00001230370002343708370C37003710F22A2
:1046E00042718371C37103727047026813680221BB
:1046F0000B43136070470323026853710268D37140
:104700000268136802218B431360704770B5040080
:104710000D00D3780371216053784371137983714D
:1047200013789B029178C9020B43517809020B431D
:10473000D17889000B43117949010B4391798903A1
:10474000D07940030143107A0003014352791204E7
:10475000F020000302400A4313431E002B689B070E
:1047600001D42E6070BD2000034B98472E602000BE
:10477000024B9847F6E7C046F7460000EB460000BC
:1047800070B5054CE56980239B012B43E361012350
:104790000B60024B984770BD000400400D470000BD
:1047A00070B54379012B05D0002B10D0022B0DD111
:1047B000082500E00625002310C99A1C920006680F
:1047C000B446624454600133AB42F5D370BD042556
:1047D000F1E7000010B50023026813720F4B426826
:1047E00013400F4A93420AD00379032B0ED00C00DA
:1047F0001034036804C99A638C42FAD110BD03686F
:104800000A689A6303684A689A63F7E78379023B08
:10481000012BECD803680A689A63EFE7FF00FF00FA
:1048200003000100002302681372104B426813401A
:104830000F4A93420AD00379032B0ED00A0010329C
:1048400003689B6B08C18A42FAD1704703689B6B6F
:104850000B6003689B6B4B60F7E78379023B012B8E
:10486000ECD803689B6B0B60EFE7C046FF00FF00CE
:10487000030001001723002A01D0180070478B00A5
:10488000064A9B58002B03D0834205D01D23F4E732
:10489000890088500023F0E70023EEE7F421002090
:1048A0001723002901D01800704700221F2800D8C4
:1048B000024A0123834013610023F4E700240040EF
:1048C00070B50022104B1A70002310491F25104E9E
:1048D0000D4C0AE00D4908E023780133DBB2237068
:1048E0000F2B10D800211F2BF4D9280018400122CB
:1048F000824048691042EFD04A619B009B59002BCF
:10490000EAD09847E8E770BDF0210020002400407D
:10491000F4210020064A137802210B431370012072
:1049200053681942FCD153681842F9D17047C04608
:1049300000240040064A137802218B4313700120A3
:1049400053681942FCD153681842F9D17047C046E8
:104950000024004010B5124A516980239B000B438C
:104960005361104A137801210B4313700131012068
:1049700053681942FCD153681842F9D1094A137897
:1049800010210B431370084B19004031002204C35F
:104990008B42FCD10822054B1A60054B984710BD8D
:1049A0000004004000240040F421002000E100E069
:1049B00015490000002303604360012202728372E4
:1049C0000132C27243727047F0B583B005000C002B
:1049D0001C4B984701A900234B70CB7023790B70B7
:1049E000237A8B702078184B984700211F2D00D810
:1049F000164907222A409200E77AA37A002B01D0B9
:104A000008231F43EB089B00CB18D8690F2696405C
:104A1000B04397403A000243DA61637A002B0BD12E
:104A20008A690123AB40DB431B041B0C13408B61E1
:104A3000074B984703B0F0BD8A690123AB4013438D
:104A40008B61F5E735490000D97200000024004071
:104A50001549000010B51E4A936904210B43936168
:104A60001C4B2022FF321A831A7D0523D20701D462
:104A7000180010BD03781B02C02292001340417839
:104A8000C901FF220A401343817849001E220A40CF
:104A90001343C27892048021C9020A401343027969
:104AA0001204C02189020A4013430A4A53609368E2
:104AB0005B035B0F084908249C400C8093684B8083
:104AC00043780B71138BDB05DB0F1B01D0E7C0466E
:104AD0000004004000400041600B002030B5304A27
:104AE0001488538863438B420BD2802292012D4B52
:104AF000CB18934205D92C4C18232C4A8A18A24271
:104B00000ED82B4B5C688022D20222435A602022AE
:104B1000FF321A831B7DDB0704D4254B5C60052321
:104B2000180030BD452829D88300224AD3589F4613
:104B30001F4B1B8BDB0503D51D4B5C601023EFE780
:104B4000890849001A4BD96103E089084900184BCC
:104B5000D961FD2305001A3D1D4013D0A5231B027A
:104B60001843134B1880190001220B7D1342FCD00F
:104B7000002D0FD00E4B5C600023D1E70C4B5C6026
:104B80001723CDE70A4B59688022D2020A435A60A4
:104B90005B68E3E7064A536807490B405360E9E75F
:104BA000600B002000C07FFFFF1F00000000C0FF5F
:104BB00000400041E4F90100FFFFFBFFF8B52F4B77
:104BC0001C885B886343834207D22D4E18252D4BEA
:104BD000C318B34206D8012600E00026631E18253C
:104BE000184201D02800F8BD013D9442FAD3264B6B
:104BF0001B7D123DDB07F5D5244C234B1C801D008B
:104C000001242B7D2342FCD02024FF341E4B1C8327
:104C1000002A2CD0012305009D430023541EA446E6
:104C200009E0CF187F783F023C432C8002339BB2CF
:104C300002359A4204D9CC5C6345F2DBA4B2F4E7B6
:104C40000E4B1B790025002BCCD13F2ACAD8002E51
:104C500006D10022010004200D4B98470500C1E752
:104C6000002201001C200A4B98470500BAE7034BBD
:104C70001B790025002BEAD0B4E7C046600B00206A
:104C8000FF1F00000000C0FF0040004144A5FFFFDF
:104C9000DD4A000070B51B4B1C885B886343834270
:104CA00005D2194E1825194BC318B34203D8631EF9
:104CB0001825184201D0280070BD013D9442FAD356
:104CC000134B1B7D123DDB07F5D52024FF34104B21
:104CD0001C83002A14D0012398430023561E04E0AD
:104CE00002339BB202309A4208D90488A4B2CC5451
:104CF000B342F5DACD18240A6C70F1E70025DAE743
:104D00000025D8E7600B0020FF1F00000000C0FF57
:104D10000040004110B5224A138852885A4382420B
:104D200007D2204C182220494118A14207D801245B
:104D300000E000249B00013B1822184201D0100023
:104D400010BD1A4B1B7D133ADB07F8D5174B2022F9
:104D5000FF321A8380084000D861002C1BD05968AC
:104D60008022D2020A435A605A68114A1A800F49B7
:104D700001220B7D1342FCD0002C04D00B4A536857
:104D80000C490B405360094B1A8B1C200240501EEB
:104D900082419200D3E7084A044B1A80E7E7C046F5
:104DA000600B0020FF1F00000000C0FF004000411A
:104DB0001AA5FFFFFFFFFBFF02A5FFFF154B2022F7
:104DC000FF321A839B685903490F183AFF3A8A4009
:104DD000027043801B0D83810F4B1B885B065B0FAA
:104DE000072B10D00622D21A0423934043600A4BAB
:104DF0001B8807221340072B08D00722D21A04234E
:104E000093408360704700234360F0E70023836092
:104E1000F8E7C046004000410040800000B583B084
:104E200001AB80221A700A785A704A789A708A7890
:104E3000DA701900014B984703B000BDD972000029
:104E400003681869431E9841C0B2704770B50400EA
:104E500006680422084B1A60084D2000A847002865
:104E6000FBD13388022213433380044D2000A8472E
:104E70000028FBD170BDC04600E100E0414E0000BB
:104E800070B504000668042180230A4AD1500A4DF7
:104E90002000A8470028FBD1084B3381B381338819
:104EA000022293433380044D2000A8470028FBD101
:104EB00070BDC04600E100E0414E0000FF81FFFFF1
:104EC00070B5040006680A4B98470023A386E38662
:104ED000084D2000A8470028FBD133880122134346
:104EE0003380044D2000A8470028FBD170BDC04688
:104EF000814E0000414E0000F8B504000E00076826
:104F00000C4D2000A8470028FBD12379002B09D0A5
:104F10001720012B05D1BE61064D2000A8470028AF
:104F2000FBD1F8BD044B17209E42FAD8B6B23E839F
:104F3000F2E7C046414E0000FFFF000070B50400DC
:104F40000668084D2000A8470028FBD12379002BD4
:104F500004D00020012B00D1B06970BD308B80B22D
:104F6000FBE7C046414E0000F0B583B0040001915C
:104F700015000668134F2000B8470028FBD123799D
:104F8000002B0ED0012B19D11730012D17D8083561
:104F9000AD00019BAB510B4D2000A8470028FBD171
:104FA0000DE01720022D0AD8074B019A9A4206D825
:104FB0006B469B8810356D00AB53ECE71A2003B0AD
:104FC000F0BDC046414E0000FFFF000070B5040078
:104FD000150001601F4A516980235B000B43536138
:104FE00005221D4B1A611D4B9847AB7823711C4B52
:104FF0001C6022682B79DB0329880B439BB213804A
:10500000AB78002B13D01720012B0FD113889BB244
:105010001380EB78002B03D0138880210B4313807F
:10502000A968002220000F4B9847002070BD13880C
:1050300004210B431380EB781720002BF6D10022BC
:10504000A9682000074EB047E96801222000B04758
:105050000020EBE70004004000100040C14E0000BB
:1050600034220020694F00000A2A09D0072A07D9F4
:105070000379002B10D0012B12D11633092A09D83D
:10508000931C9B001950838E012191400B439BB2CE
:10509000838600231800704717230A2AFAD8EFE7FF
:1050A0001723F7E710B502680A2911D0072912D98A
:1050B00080235B000C00083CA340C024A4002340D4
:1050C0005381C38E01228A4013439BB2C38610BD15
:1050D000044B5381F5E701248C40FF232340538187
:1050E000EFE7C0460080FFFF10B502680A2910D024
:1050F000072911D980235B000C00083CA340C02481
:10510000A40023401381C38E01228A409343C386A7
:1051100010BD044B1381F6E701248C40FF2323408C
:105120001381F0E70080FFFFF8B5DE4657464E4694
:105130004546E0B52B4B1B689A461E68DB8E5246EF
:10514000928E1A409046B289738913401AB2002A8F
:1051500008DBFF271F402AD0002401239946FE3395
:105160009B4614E043465B0507D41F4BB3813CBC10
:1051700090469946A246AB46F8BD53461B6B9847EE
:10518000F3E75B461D40B5810134082CEFD02300C6
:105190004D46A5402F42F4D0424622414946114295
:1051A000EFD002339B0052469B589847E9E7DA0557
:1051B0000AD54346DB0503D480235B00B381D6E7E1
:1051C00053469B6A9847F7E79B05D0D543469B0516
:1051D00003D480239B00B381C9E75346DB6A984719
:1051E000F7E7C046342200200080FFFF0168072255
:1051F000CB691A42FCD17047F0B5D6464F464646B9
:10520000C0B58AB007000E00140039600800A54B35
:105210009847052800D13DE105001235A24AD16921
:10522000012383400B43D36109A9237B0B70EDB2AB
:1052300028009E4B984728009D4B9847207B0021D3
:105240009C4B984733681C209B0705D50AB01CBCB3
:1052500090469946A246F0BD33681738DB07F5D46F
:105260003868904B9946984705009349934B984767
:10527000AD00934BEF5000233B767B7600257B837C
:10528000BB832522BD543B62143333603B68984690
:105290001800C8478146802308AA1370557001235F
:1052A0009370D570E069266A002800D1AFE008ABA2
:1052B0001870022308AA5370000CC0B21100814B71
:1052C0009847002E00D1A7E008AB1E70022308AA61
:1052D0005370360CF0B211007A4B9847A38AFB80CA
:1052E000E38A3B81237E8022002B04D1764B9B787E
:1052F0009B07DB0FDA01A16823690B4313432422C8
:10530000A25C002A02D08022D2051343A26A134372
:105310002C22A25C002A03D180229204914202D165
:105320008022120513432D22A25C002A02D0802283
:10533000120413432E22A25C002A02D08022D20340
:1053400013434246126813434246136080235B00B6
:1053500053604D461235E8B25C4B98470790FA23EC
:105360009B0022685A43914663689A46584DA84765
:10537000009001914B465800A84702900391208E5F
:10538000A84704900591534F534A544B00980199F4
:10539000B84702000B0004980599B847504E002208
:1053A000504BB047049005914846A84702000B00B7
:1053B00004980599B84702000B004B4D00980199DD
:1053C000A847029A039BB0470022484BA847029A7D
:1053D000039B474DA847474B9847050080239B04F4
:1053E000A2689A421ED003004020FF2D00D92DE76D
:1053F00000240020FF251D40240625430004FF2330
:105400001B04184005434346DD6000201EE70021D1
:105410004046394B98474AE701214046364B98476A
:10542000060051E7FA26B60053465E4300980199FC
:1054300002000B002A4CA047009001913000244B41
:10544000984700222D4BB84702000B0000980199A5
:10545000274CA0470022254B234CA047254B9847BB
:10546000041E0CD031000798254B98470238001BCA
:105470002B00FF2D0CD8FF28BCD94020E6E6710098
:10548000481E079B9C4660441D4B98470138EFE738
:105490004020DBE6044A136A02210B4313621825FD
:1054A000C2E6C046B15E000000040040AD710000DD
:1054B0003D710000095D0000A5590000ED5E00008F
:1054C00038220020D972000000200041D171000074
:1054D000D1940100B988010095D626E80B2E113E23
:1054E000317A010000002440B98D01000000F03F36
:1054F00051800100E5930100555D00000000084067
:10550000AD650100F8B5CE46474680B50400036896
:105510009946144EB04725682800134B9846984783
:105520001F23184001273900814061330F4AD150B1
:105530002000B04783232B752B762B6802229343E0
:105540002B600B4B98472068C0470A4B98470A4B83
:1055500098472000B0474B461F600CBC90469946C8
:10556000F8BDC046ED510000295F000000E100E0F9
:1055700031450000017200007145000003681A7E89
:10558000920707D502221A765B8B9B074120DB1717
:10559000184070475A8B520706D55968C0229202AC
:1055A0000A435A601820F4E70020F2E730B5026899
:1055B000002301240225117E21420BD1117E2942B4
:1055C00006D101339BB201899942F4D8122002E03E
:1055D000002000E0002030BD10B504686268802320
:1055E000DB02134363606162024B98470123237619
:1055F00010BDC046AD550000F0B5DE4657464E46DC
:105600004546E0B583B00600894605684C882B689E
:105610001B01DB0F9A464B7A002B2BD16B68584A43
:1056200013406B604B461B7A002B27D14B461B88DF
:105630005B004A46527A92031343012213436B6282
:105640003000504B984701905346002B03D04B46F7
:105650005B88012B3BD06B68494A13406B60019B10
:10566000002B3AD0019803B03CBC90469946A24624
:10567000AB46F0BD897A444B9847CFE74B461B8831
:105680005B004A46527A920313438022120213436C
:105690006B6230003B4B984701906B68384A13406F
:1056A0006B600028DED13000384B9847019000280D
:1056B000D8D14B461B881B0A782213435B004A460D
:1056C000527A920301210A4313436B62B8E76A6876
:1056D0008023DB0213436B60C1E730002B4B9847FC
:1056E00001900028BED1013CA4B28046284B9B46C5
:1056F00015E0012C20D03000264B984743465F1C14
:10570000BFB22823EB5C4A465268414653543000EE
:105710001C4B9847013CA4B2002815D1B8465C4503
:1057200014D06B8B9B0627D5F37A002BE3D053461E
:10573000002BDED1002CDED16A688023DB0213430C
:105740006B60013CA4B2EAE7B8460190B37A002B43
:1057500009D130000F4B98472823EA5C4B465B6821
:1057600041465A547EE730000A4B98476A68C02386
:105770009B0213436B60ECE74123019372E7C04641
:10578000FFFFFBFFAD550000D95500007D5500001F
:10579000FFFF0000ED510000F0B5DE4657464E46D3
:1057A0004546E0B583B006000F0005684C88324BD3
:1057B00098477B7A002B1DD16B68304A13406B6091
:1057C0003B7A002B1BD03B885B007A7A9203134311
:1057D0008022120213436B623000294B98470190DC
:1057E000002813D0019803B03CBC90469946A246CD
:1057F000AB46F0BDB97A3000224B9847DCE73B88D6
:105800005B007A7A920313436B62E5E730001E4B2C
:105810009847031E0190E5D1A04600242033994605
:10582000154B9B46164B9A46444515D06B8B4A4602
:1058300013421DD03000D8477B681A5D2823EA54F4
:105840003000D047002806D16B8B01345B07EBD5C5
:105850001E23019300E00190B37A002BC2D03000E8
:10586000054B98476A68C0239B0213436B60B9E7F6
:1058700041230193B6E7C046ED510000FFFFFBFF57
:10588000AD550000D95500007D55000010B5838B43
:105890009BB20522002B01D0100010BD0133837292
:1058A000C372024B98470200F6E7C046F955000064
:1058B00010B5838B9BB20522002B01D0100010BDC8
:1058C00001338372C372024B98470200F6E7C04669
:1058D0009957000001680722CB691A42FCD1704732
:1058E00070B5040006683268458B838BED1AADB243
:1058F000838B013B9BB2838313011DD5C37A002B9D
:1059000003D0838B9BB2012B10D0A38B9BB2002BB7
:1059100002D1A37A002B1CD12000124B9847236A96
:105920005D192823F35CDBB22B7070BD7268802395
:10593000DB0213437360E8E7C37A002BE5D0838B67
:105940009BB2002BE1D172688023DB0213437360AA
:10595000DBE72000034B98477268C0239B02134388
:105960007360D9E7D558000070B5040005686B8BEB
:105970005B0703D51E222523C25470BD468B838B43
:10598000F61AB6B2838B013B9BB28383044B9847D4
:10599000236A9E193378DBB22822AB54EDE7C04668
:1059A000D558000070B58000754BC45825682B6829
:1059B0001B01DA0F637E267E1E40638B9BB2002B99
:1059C00003D1A38B9BB2002B23D1638B9BB2002B03
:1059D00008D0A38B9BB2002B04D12533E35C052BAD
:1059E00000D16DE0638B9BB2002B24D0A38B9BB2C4
:1059F000002B20D06B8B9B0600D581E0002A04D0C1
:105A0000A38B9BB2012B00D17AE041222523E254E3
:105A100011E02B7EDB0707D501232B766B8B9B07D1
:105A20002ED541222523E254A38B9BB263832523E9
:105A3000E35C052B38D0638B9BB2002B07D0A38B84
:105A40009BB2002B03D12533E35C052B64D02523C7
:105A5000E35C052B13D02523E35C002B0FD003233D
:105A60002B7500236383A3832533E35C412B03D091
:105A7000A37A002B00D075E0730700D57BE070BDE2
:105A80006B8B5B07D0D518222523E2540023A38318
:105A9000A37A002BC8D020003A4B98476A68C023ED
:105AA0009B0213436B60BFE71F33E35C002B03D003
:105AB0002000354B9847BEE72000344B9847BAE7A3
:105AC0001F33E35C002B00D08CE703332B750023DE
:105AD000638325330022E254A37A002B07D10123EC
